:100000000C9451040C9477210C944C210C942121D4
:100010000C94F6200C94CB200C94A0200C9475200A
:100020000C944A200C947B040C940C220C947B04BA
:100030000C947B040C947B040C943A220C947B0467
:100040000C9400200C947B040C94CC210C94A221E1
:100050000C947B040C9402220C947B040C947B047F
:100060000C947B040C947B040C947B040C947B0414
:100070000C947B040C947B040C947B040C947B0404
:100080000C947B040C9464220C947B04300030307C
:100090000030303000303030300030303030300020
:1000A00030303030303000303030303030300020C0
:1000B000000D0A00202D200020002000200020003C
:1000C000200020000D0A002D3E2000007761697499
:1000D00041636B3A20003C2D200000206C6F6E675E
:1000E00072656C656173656400206C6F6E67707219
:1000F000657373656400206465626F756E63650087
:100100002070726573736564002072656C6561733D
:10011000656400424F4F544C4F41444552004841A2
:10012000564520444154410069676E6F7265200056
:100130002D3E20000D0A005061636B657420746FC2
:100140006F206269673A2000435243204661696C20
:10015000656400524553455400436F6E66696720DD
:10016000467265713A203078323100202D20726558
:100170006164790043432056657273696F6E3A205B
:1001800000002E0206030D04E905CA070C0B060D3C
:10019000210E650F6A10C811931203153417031846
:1001A0001819161B431E2F1F65207823E9242A25C2
:1001B0001F26113E033100434320696E6974000D10
:1001C0000A00496E69742053746F726167653A2042
:1001D000000D0A00202D20004164647265737320B5
:1001E00053706163653A200041736B53696E2B2B2A
:1001F0002056342E312E3720284E6F762031332072
:10020000323032302032303A34363A333929000035
:10021000003A003700340031002200610064000021
:10022000003B00380035003200230062006500000A
:100230000039003600330030002100200063000543
:100240000505050505050502020202020202020774
:10025000070404040404040404070703030303035A
:10026000030303070101010101010101060606065E
:100270000606060601020408102040800102040858
:100280001020408008100102040810204080010264
:10029000010204081020408004804020100804025D
:1002A0000101020408102040800000000A0B0C002D
:1002B000000000000001040506000000000000002E
:1002C000000000000000000000000000000000002E
:1002D000000000000000000000000000000000001E
:1002E00000000000000002140505000000000201EB
:1002F0000A010000000000000000000000000000F3
:10030000000000000000060305010101010A0601CA
:1003100001010501050A02060202000000000501B4
:100320000804040404000D0A0020726561643A2088
:10033000002065787065637465643A2000457272C8
:100340006F7220617420003456A64A5054483130F0
:100350004939393900003F107001005F0003030480
:10036000040305050E0F00FD0BFD0BFD01B203A2FA
:1003700005262005008C142109B28514074B8C003A
:10038000220935C51712CA28022317A9847912A198
:100390004428111D4212A1447408498412A1440644
:1003A0002417E77478C18A244289506244EA3042B3
:1003B00089502292623806251BBC843DC4905E841D
:1003C000A4384C0E92C3E230093522924944B21847
:1003D00005002613A9855B538950225D92549446EB
:1003E0003291885411270732C5141500280DE46D89
:1003F00055129144A4DF443201290EE46C15329168
:100400004CA45F441211002A0945BC56A1CA4401FC
:100410002B0B788C7962B5434CAC062C08337C34BA
:10042000120A002D0613A414032E06228514042F8D
:100430000FB4847449A25848140B89623100300DFE
:10044000B7845833891ABF49D446003108B4855857
:1004500026FD03320DB7843815194D2A1CEAF50024
:100460003310B7843815194DAA4496D268920A0001
:100470003412B884B8D2214D225291496492435427
:10048000AC023510B7843816A9506A9D4A69241108
:100490000900360FB7845824151155B244E326A934
:1004A00000370FB7841857A15428154A85524500C4
:1004B000380EB784381519374945C64D5201390EE3
:1004C000B7843815196F122B8D2422013A088286C1
:1004D000157408013B0A937D35EA600905003C0963
:1004E000569578939174013D08379D1977C0013E68
:1004F0000A569518D3A96832033F0EB785391519E6
:100500004D2AD42A87AA01401DCD7C9EE5D9EA4810
:1005100025A224115144228A1A4549229ACCE4503A
:10052000991C50054117BA849A72881C400E4545A3
:1005300042914C283A8484123159004211B8851AEC
:100540001759914D629249846C8709004317B98508
:100550007B25CA443A07C80172801C20874823942F
:100560005905004410B9851B36D9442891F251220F
:100570009BD800450CB7851907A9D68354EB0146D3
:100580000CB7851907A9568B5457004715B9857BB9
:1005900025CA443A07C801322B552294506694006C
:1005A000480BB8851A421E0F451E054907B285142F
:1005B0001F024A0CB784B8FA4AA3552615004B15FA
:1005C000B9851A42894CA4261152A912A148A62421
:1005D0009448054C09B7851852FDEB014D19BB85B0
:1005E0001D72001D50B5DE2CB1082516A1A8902261
:1005F00021D28816134E13B9851BD2629112A3889B
:10060000482192841621B60A4F11BA857CC4D1487C
:100610002811F32C118A166900500DB8851A175944
:1006200091ED3011EB0C5111BA857CC4D1482811E1
:10063000F326511B2D52045217B9851B27D9442884
:10064000114A64A2936C2294082542895400530FE6
:10065000B8853A9651B1CC3C2656462500540AB886
:100660008418879858FF06550CB9851B52FE5522F1
:100670009395005616BA841A62B24428128AD64458
:100680004291944C07C8214200571DBE841E42214E
:10069000514854119194929492544412594424090B
:1006A000AE0AC54219005813B9841952AA44A622A9
:1006B0001D4F25322599444A155917BA841A628963
:1006C00050249489842229990E9043E410394408D7
:1006D0005A0EB8841987B05475AA3A553E045B097E
:1006E000E46D1526FD4F045C0CB48414B1982C4DB8
:1006F00096264B5D09E46C1524FD4F065E0A56B53F
:100700005832528A88245F07186C188700600723C4
:10071000CD15220161108785382455514524114992
:1007200024A38900620EB78519522DA2891AB78AAF
:100730002600630D868558230989A824519A0064F0
:100740000EB785B99A242A356E12C94822650E86DD
:1007500085381411E930144E241400660CB5845405
:1007600013998824D327006712B76D599388A4C6BC
:100770004D221949A4A4490500680BB78519522DCB
:100780002B35BE096909B28514A4C341006A0AE386
:100790006C348A12FD72016B0EB68518424D140935
:1007A0008924D189246C07B285141F026D138A85B0
:1007B0001C12C916928824228948229288A4006EAD
:1007C0000A87851992951ADF046F0D878559338939
:1007D0001A3789DA0800700FB76D1912D1448D5B92
:1007E0004593541500710EB76D5912951A378964E7
:1007F00024916A720A85851692834C6F00730D8668
:10080000853814519138AC482800740DA5843532D0
:100810005145A697900400750A87851932BE555632
:1008200004760F88841842A244A42D14A48A65007B
:1008300077148A841A2211494452D124511309454C
:1008400042910800780E878417329A446D3893A835
:10085000D1047911B86C1842A244A42D14A48A556D
:10086000A543007A0B8684164699A24CD1007B0CD6
:10087000E56C7622992645351D057C06E16E140F40
:100880007D0DE56D1642994625359D64007E09373C
:100890009D39A3494D0200000004FFFF000084239E
:1008A000AF2A11241FBECFEFD0E1DEBFCDBF12E0D3
:1008B000A0E0B1E0E0E4FAE500E00BBF02C0079081
:1008C0000D92AC33B107D9F729E0ACE3B2E001C037
:1008D0001D92A538B207E1F714E0C0E5D4E004C0EA
:1008E0002197FE010E94B42BCF34D107C9F70E9493
:1008F0009D250C94132D0C940000662329F06A307A
:1009000019F0862F90E008958FEF9FEF0895CF9212
:10091000DF92EF92FF920F931F93CF93DF93EC013F
:10092000842F8770E1E0F0E0082E01C0EE0F0A94FA
:10093000EAF73E2F7E019AE7E90EF11CD7019C9160
:1009400010E0923018F41E2F913029F150E0487FCA
:10095000E9ADFAADC880D980D60150969C91949F9C
:100960006001959FD00C11246C0D7D2D711DDF0150
:10097000A60FB71F011115C08C91812B83278D9372
:100980002150D1F7DF91CF911F910F91FF90EF9000
:10099000DF90CF90089530E0D9CF110F330F22238D
:1009A00089F39C91912B93279C938F5F87702150A3
:1009B0008111F3CF9DADA90FB11DF7019081923048
:1009C00028F4913009F031E011E0E9CF31E0E7CFD0
:1009D00080E0089580E008959B01DC011896ED9178
:1009E000FC9141E067E1099481508C3088F5E82F53
:1009F000F0E0E350FB4F0C94B42B250525052805AA
:100A000009050D05100513052805280517051D0501
:100A100021058FB58F778FBD08958FB58F7DFBCF63
:100A20008FB5877FF8CF85B58F7D85BD089580917F
:100A30008B008F7780938B00089580918B008F7D42
:100A4000F9CF80918B00877FF5CF83B78F7D83BFF0
:100A50000895CF93DF93282F30E0F901E755FD4F3C
:100A60008491F901EC58FD4FD491F901E15CFD4FFF
:100A7000C491CC23A1F081110E94F404EC2FF0E08A
:100A8000EE0FFF1FE15DFD4FA591B491EC91ED23B9
:100A900081E090E009F480E0DF91CF91089580E05B
:100AA00090E0FACF1F93CF93DF93282F30E0F90126
:100AB000E755FD4F8491F901EC58FD4FD491F901B0
:100AC000E15CFD4FC491CC23A9F0162F81110E9447
:100AD000F404EC2FF0E0EE0FFF1FE15EFD4FA59157
:100AE000B4918FB7F894EC91111108C0D095DE2322
:100AF000DC938FBFDF91CF911F910895DE2BF8CF4C
:100B0000CF93DF9390E0FC01EC58FD4F2491815C82
:100B10009D4FFC0184918823C9F090E0880F991FB4
:100B2000FC01E15FFD4FA591B491FC01E15EFD4F39
:100B3000C591D49161110DC09FB7F8948C91209507
:100B400082238C938881282328839FBFDF91CF91B4
:100B50000895623051F49FB7F8943C91822F8095AC
:100B600083238C93E8812E2BEFCF8FB7F894EC91F1
:100B70002E2B2C938FBFEACF9C01220F331F05979A
:100B8000820F931F0197F1F708950F931F933FB7BB
:100B9000F8948091D8029091D902A091DA02B09194
:100BA000DB0222B706B600FE05C02F3F19F0019602
:100BB000A11DB11D3FBFBA2FA92F982F8827820FE3
:100BC000911DA11DB11DAC01BD01E2E0440F551FF7
:100BD000661F771FEA95D1F78C019D01F2E03695EB
:100BE000279517950795FA95D1F7400F511F621F6A
:100BF000731F480F591F6A1F7B1F8C019D01E3E083
:100C00003695279517950795EA95D1F7400F511F0F
:100C1000621F731F8C019D01F5E03695279517958E
:100C20000795FA95D1F7400F511F621F731F14E00B
:100C3000B695A795979587951A95D1F78A019B0147
:100C4000081B190B2A0B3B0BC901B8011F910F910F
:100C5000089508958FEF0895663050F4FC01808167
:100C600091810296F6E06F9F800D911D11240895E9
:100C700090E080E008950895AF92BF92CF92DF9206
:100C8000EF92FF920F931F93CF93DF936C017B0141
:100C90008B01040F151FEB015E01AE18BF08C017D2
:100CA000D10759F06991D601ED91FC910190F08145
:100CB000E02DC6010995892B79F7C501DF91CF9108
:100CC0001F910F91FF90EF90DF90CF90BF90AF906A
:100CD0000895FC01538D448D252F30E0842F90E042
:100CE000821B930B541710F0CF9608950197089527
:100CF000FC01918D828D981761F0A28DAE0FBF2FF0
:100D0000B11D5D968C91928D9F5F9F73928F90E045
:100D100008958FEF9FEF0895FC01918D828D9817B4
:100D200031F0828DE80FF11D858D90E008958FEFF1
:100D30009FEF0895FC01918D228D892F90E0805CBA
:100D40009F4F821B91098F73992708958CED92E034
:100D50000E949A0621E0892B09F420E0822F089551
:100D6000FC01A48DA80FB92FB11DA35ABF4F2C9120
:100D7000848D90E001968F739927848FA689B78917
:100D80002C93A089B1898C9180648C93938D848DF0
:100D9000981306C00288F389E02D80818F7D8083BF
:100DA0000895EF92FF920F931F93CF93DF93EC017F
:100DB00081E0888F9B8D8C8D981316C0E889F98906
:100DC000808185FF11C0EE89FF896083E889F989F8
:100DD00080818064808381E090E0DF91CF911F91DA
:100DE0000F91FF90EF900895F62E0B8D10E00F5F9E
:100DF0001F4F0F731127E02E8C8D8E110CC00FB674
:100E000007FCFACFE889F989808185FFF5CFCE010B
:100E10000E94B006F1CFEB8DEC0FFD2FF11DE35AD0
:100E2000FF4FF0820B8FEA89FB8980818062D2CFED
:100E30000F931F93CF93DF938C01D0E0C0E0F801B4
:100E4000EC0FFD1F6491662341F08CED92E00E944F
:100E5000D106892B11F02196F2CFCE01DF91CF91EF
:100E60001F910F910895CF93DF93EC01888D882314
:100E7000B9F0AA89BB89E889F9898C9185FD03C0FD
:100E8000808186FD0DC00FB607FCF7CF8C9185FFE2
:100E9000F2CF808185FFEDCFCE010E94B006E9CF71
:100EA000DF91CF91089580E090E0892B29F00E9496
:100EB000A60681110E94000080E090E0892B49F095
:100EC00080E090E0892B29F00E94000081110C94B1
:100ED00000000895CF93CFB7F8948091CD0281118F
:100EE00023C0E7E4F2E08491ECE7F2E09491E82F8C
:100EF000F0E0EE0FFF1FE15FFD4FA591B491EC9183
:100F0000E92321F461E088E00E94520561E088E075
:100F10000E9480056C9A6E9A61E089E00E948005CB
:100F200061E08AE00E9480058091CD028F5F80930E
:100F3000CD02CFBFCF9108958F929F92AF92BF9273
:100F4000CF92DF92EF92FF92CF93DF937C01C62F77
:100F50006C32B0F46A32E8F5683249F1693209F46A
:100F600044C080E0C034B0F1CF73F701EC0FF11D45
:100F7000878D8F3F71F1C03108F068C0642F14C0B5
:100F80006D3209F456C068F384EB860F823048F75F
:100F9000CF73CE0DDF2DD11D8F8D411153C061E078
:100FA0000E94800560E08F8D0E94520512C02FE1E3
:100FB000E20EF11CD0E0F70181917F018F3F31F00B
:100FC00061E0D03108F062E00E948005DF5FD63139
:100FD00091F781E0DF91CF91FF90EF90DF90CF907C
:100FE000BF90AF909F908F900895C42ED12CF12C7C
:100FF000E12C0E94C5054B015C01C114D104E10440
:10100000F10439F30E94C505681979098A099B0919
:10101000683E73408105910580F3F1E0CF1AD10855
:10102000E108F10828EE820E23E0921EA11CB11CFB
:10103000E4CF85E090E0433010F082E090E00E9441
:10104000BC05C7CF62E00E948005C3CF0E9429057E
:1010500021E0892B09F420E0F701228FBACFDC01CF
:101060001A96ED91FC9130E020E00994DC01149691
:10107000ED91FC9130E020E040E060E10994DC017A
:101080001696ED91FC9130E020E040E069E1099492
:10109000DC011696ED91FC9130E020E040E068E143
:1010A00009949A01DC011696ED91FC91462F67E1B7
:1010B0000994EF92FF920F931F93CF93DF931F92A8
:1010C000CDB7DEB77C018B01D8016C91673129F176
:1010D00050F46531A0F40F90DF91CF911F910F91E3
:1010E000FF90EF9008956A3118F16E3FA1F7F80173
:1010F0004181498369E2C7010E942F080BC0F801B2
:1011000041814983D7011696ED91FC9130E020E0B2
:10111000C70109950E5F1F4FD7CFF80181818983E1
:10112000AE014F5F5F4F61E0C7010E945108F2CFEF
:101130000F5F1F4FD7011696ED91FC9130E020E034
:1011400040E0C7010995C0CF462FDC011696ED910E
:10115000FC9130E020E066E10994462FDC01169610
:10116000ED91FC9130E020E065E10994CF92DF92AF
:10117000FF920F931F93CF93DF93EC01142F69011C
:101180006E3009F45FC06F30A1F06B3009F450C0CD
:101190006A3009F464C06D3009F497C080E06930AA
:1011A00009F03EC08EE591E09983888384E08C8BC2
:1011B00036C00E944808F6010381000F000F000F9F
:1011C0008C89080F602F62956F706061CE010E945C
:1011D000AD08602F6F70CE010E94AD08F6016481EA
:1011E000606BCE010E94AD08F601F280FF0CFF0C8F
:1011F000FF0CC080D1802F2D200F3327331F2538BF
:1012000031051CF084E8F82EF01AA6016F2DCE01EE
:101210000E9451081150C9F7CE010E943F0881E099
:10122000DF91CF911F910F91FF90DF90CF900895A4
:101230006CE271E0442311F065E271E0CE010E949E
:101240005908EDCF0E94480861E8CE010E94AD0820
:10125000612F66956695CE010E94A408DDCFEA85D0
:10126000FB8530E020E040E068E20995EE81FF81F7
:1012700030E020E040E064E1CE01099541E06BE41C
:10128000CE010E942F08E881F981448169E2CE01F4
:101290000E942F0840E06BE4CE010E942F08E881F5
:1012A000F981448169E2CE010E942F0841E06BE49C
:1012B000CE010E942F08E881F981458169E2CE01C3
:1012C0000E942F0861E471E0B9CF411108C063E3C7
:1012D00071E00E945908E881F981828968CF6AE348
:1012E00071E00E945908E881F981838960CFCF932A
:1012F000DF931F92CDB7DEB76983BE016F5F7F4F6B
:101300000E94EC040F90DF91CF910895462FDC01ED
:101310001896ED91FC9130E020E060E20994EF92A4
:10132000FF920F931F93CF93DF938C01C62FD42F7F
:101330007901673130F46531B8F4643131F080E01F
:101340001BC0673101F16A31D0F7D8011896ED91D1
:10135000FC9197014D2F6C2FC801DF91CF911F9108
:101360000F91FF90EF90099460E00E9486096D2F25
:10137000C8010E94770981E0DF91CF911F910F9101
:10138000FF90EF90089561E00E948609DECFFC0196
:101390006623D9F16A30C9F1818D811125C06C3F76
:1013A00048F085E0818F617070E0738B628B2EEF67
:1013B0003FEF29C0683F20F084E0818F6370F4CF55
:1013C000603F20F083E0818F6770EECF603E20F0B9
:1013D00082E0818F6F70E8CF262F30E0603C98F07C
:1013E00081E0818F6F71E0CF8150818F22893389B5
:1013F00096E0220F331F9A95E1F76F73262B338BFC
:10140000228B8111D4CFC90108952FEF3FEFFBCF7D
:101410000F93DC01DF963C91DF97431BD596ED914E
:10142000FC9109950F910895CF93DF93FC01A08162
:10143000B18183AD982F990F990F990F96AF509660
:101440009C915097903208F09FE1990F990F990F56
:1014500095AF24AD922F990F990F990F97AF519691
:101460003C915197682F620F7727771F3617170621
:1014700014F4832F821BEF01C05CDF4F9883219609
:10148000880F880F880F890F8883219680EF8883C3
:1014900054968D919C915597813F910508F48883CE
:1014A000ED5BFF4F56968C918083DF91CF9108952D
:1014B0000F93FC01EA5BFF4F308131965081451755
:1014C00030F4301738F0041728F080E013C03017DC
:1014D000D0F3FBCFFC01EC5BFF4F30818B5B9F4F68
:1014E000FC018081681740F481E0321718F081E038
:1014F000261758F70F9108953217C8F3E6CF2F92A9
:101500003F924F925F926F927F928F929F92AF9293
:10151000BF92CF92DF92EF92FF920F931F93CF93E0
:10152000DF93EC014C0184E4880E911CF4011082DD
:101530002DAC5E01F5E4AF0EB11CF50120823597AC
:1015400030806E01F6E4CF0ED11CF6013082359763
:1015500040807E01F7E4EF0EF11CF70140823496E3
:101560001081329760803196708032975080012FC1
:10157000262D472D652DCE010E94580ACC58DF4FED
:10158000811114C01882DF91CF911F910F91FF90AC
:10159000EF90DF90CF90BF90AF909F908F907F9013
:1015A0006F905F904F903F902F90089581E08883D7
:1015B000552011F0F4015082621410F4F50160829C
:1015C000371410F4F60170821415E8F6F701108351
:1015D000DACF0F93DC01802FFD01EC58FF4F908193
:1015E0009923E9F12223D9F1223020F0023079F554
:1015F0006F5F621B082F0170FD0180FD32C0EA5B46
:10160000FF4F8081481758F131968081481738F58F
:101610003297908131978081260F2617F0F4691751
:10162000D8F42FEF290F8217D0F4681708F4682F29
:10163000291708F4922F961BD796ED91FC91D89715
:101640000480F581E02D292FCD01099508C00330D4
:1016500089F64F5F421BCECF682F691720F30F9199
:101660000895EC5BFF4F80816817C8F33196808145
:101670006817A8F73296908131978081240F24173C
:1016800078F4491760F42FEF290F821740F74817B5
:1016900008F4482F291708F4922F941BCDCF482F18
:1016A0004917E8F6F2CF213039F020F0223031F03E
:1016B000840F0895860F0895841B0895861B08954E
:1016C000213039F020F0223031F0861B0895840F4C
:1016D0000895860F0895841B08955F926F927F92FC
:1016E0008F929F92AF92BF92CF92DF92EF92FF9232
:1016F0000F931F93CF93DF935C01162F642EEC01A1
:10170000C05BDF4FDC80ED804C018AE7880E911CC6
:10171000FE80FD18C12EF11608F4CF2C5B800C85DD
:10172000202F4E2D6D2D8A810E94530B782E202F55
:101730004E2D6D2D852D0E94600B482F662071F077
:101740008A85F40180832C2D672DC5010E94E90A4A
:101750001F1548F01F19E394D12CDACF8985811128
:10176000F7CF8B85EECF1D0D1C83ED82DF91CF91DE
:101770001F910F91FF90EF90DF90CF90BF90AF90AF
:101780009F908F907F906F905F900895DC011896E6
:101790004C911897ED91FC911197249130E0042E13
:1017A00002C0359527950A94E2F7842F860F88307A
:1017B00068F031961196FC93EE93E49198E0941BB7
:1017C00001C0EE0F9A95EAF72E2B885018968C934D
:1017D0008FEF9FEF01C0880F6A95EAF7809582230B
:1017E00008950F931F93CF93DF938C01EC01C05B9F
:1017F000DF4F798368831886FC01EF59FF4F6081C2
:10180000CE010E94C60B8E83F801EE59FF4F608116
:10181000CE010E94C60B8F83F801E658FF4F9081DE
:101820009A8781E0911180E08B87DF91CF911F91A2
:101830000F910895CF93C62F0E94C60BC15021E08F
:1018400030E001C0220FCA95EAF7821BCF910895BC
:10185000FC01E60FF11D849190E0982F88273196C6
:10186000E4918E0F911D0895EF92FF920F931F93B5
:10187000CF93DF93FC01E45BFF4F20813181295E30
:101880003F4F6F3F710509F048F561367105D8F09B
:1018900080599F4FFC0180819181280F391FC90118
:1018A0000196FC014491442309F447C0F901449195
:1018B0004617170671F40196DF91CF911F910F9192
:1018C000FF90EF9008956134710548F382599F4F5E
:1018D000E1CFFC018491280F311DE1CF8B01FC0188
:1018E000EE58FF4FC081D181C20FD31F7E0160E04F
:1018F000C7010E94280CC80FD91F62E0C7010E94CF
:10190000280CF4E0EF0EF11C8017910780F3FE0124
:10191000849190E0982F88273196E4918E2B009740
:1019200061F00817190719F4CE010396C5CFFE011F
:101930003296E491CE0FD11DEACF90E080E0BCCF8B
:101940002F923F924F925F926F927F928F929F92CF
:10195000AF92BF92CF92DF92EF92FF920F931F93BD
:10196000CF93DF93EC017C0126E5E20EF11CF70139
:101970001082198E83EFC82E81E0D82E312C212CB5
:101980008E01005B1F4F2E01F3E64F0E511C3E01EE
:1019900028E7620E711C5E0184E6A80EB11C4E01A0
:1019A000E5E68E0E911CF60161916F01EA81FB81E3
:1019B000CE0109958F3F980721F18E3F2FEF9207B7
:1019C00091F3BC01CE010E94340C0097C1F0BC0120
:1019D000CE010E94F10BF2016081C8010E941A0C35
:1019E000F3018083F5016081C8010E941A0CF401A3
:1019F0006081C8010E941A0C382E280ED4CF80E0D6
:101A0000FBCFF7018081882331F0C858DF4F9881E0
:101A1000890F280E2318822DDF91CF911F910F91EE
:101A2000FF90EF90DF90CF90BF90AF909F908F90FE
:101A30007F906F905F904F903F902F900895CF933D
:101A4000DF93EC016CAFEFA9F8AD0190F081E02DD0
:101A50000995EFA9F8AD0280F381E02DCE01DF9169
:101A6000CF910994AF92BF92CF92DF92EF92FF9203
:101A70000F931F93CF93DF9300D000D01F92CDB769
:101A8000DEB78C01DC01DB96AC90DB97DC96EC904A
:101A9000DC97ED91FC91B188FE2CD12CC12CD801A2
:101AA000ED91FC9111978089D9962D913C911C82E2
:101AB000FD828B83B8E08B9FC00111248C9DA00117
:101AC0008D9D500D9C9D500D1124240F351F3A8380
:101AD0002983D8011496ED91FC919E012F5F3F4F11
:101AE00041E06FE0C8010995F3948F2D8E198A1596
:101AF00028F4BFEFCB1ADB0AFB1488F20F900F908B
:101B00000F900F900F90DF91CF911F910F91FF9049
:101B1000EF90DF90CF90BF90AF90089508958FEF32
:101B20009FEF08958FEF9FEF08958091CC0290E092
:101B3000919581959109089585ED80937400809128
:101B4000740084FDFCCF1092A602089520918202B9
:101B5000260F3327331F21323105ECF42091A602E2
:101B6000FC0190E080E0243069F082E00895A091CB
:101B700082022191AC014E595D4FA40FB52FB11DCA
:101B80002C930196861798F380918202680F6093D8
:101B9000820280E0089581E00895CF93DF93CB0126
:101BA000EA01642F0E94A60DCE01DF91CF91089526
:101BB000CF93DF931F92CDB7DEB7698361E0CE018B
:101BC00001960E94A60D81E090E00F90DF91CF91E9
:101BD00008958BE00E942905892BD9F7089561E0CB
:101BE00088E00C94520560E088E00C945205825025
:101BF0008B3030F4E82FF0E0E65EFE4F80810895F0
:101C00008FEF0895843030F4E82FF0E0E758FE4F6E
:101C1000808108958FEF0895FC01108608950F9339
:101C20001F93CF93DF932FEA31E0FC0131832083B0
:101C30008C010A5B1F4F79F0EC01CF57DF4F0C1777
:101C40001D0749F0EB97E881F9810280F381E02DCF
:101C5000CE010995F4CFDF91CF911F910F91089597
:101C60000895FC018289938961E0911101C060E0CF
:101C70000C945205E091D102F091D2028485811139
:101C800002C081E083870895813011F08FEF0895BD
:101C900080E00895882311F08FEF089581E0089582
:101CA0008FEF0895883011F08FEF089580E0089548
:101CB000882311F08FEF089588E0089580E008955B
:101CC000CF93DF93EC01CB01463058F4642F049698
:101CD0000E942C06049699838883CE01DF91CF91D0
:101CE000089590E080E0F7CF08950895089508954D
:101CF00008950C9418070E94790E84EC90E00C94DF
:101D0000790E0F931F93CF938C01C62F86EF90E02F
:101D10006430A1F058F489E091E0623079F080E01D
:101D200091E0633059F08AED90E008C089EE90E0D0
:101D3000653021F08BED90E06630A9F70E947B0EB4
:101D4000C770F8018085887FC82BC087CF911F910D
:101D50000F9108950895862728E0BC017695679530
:101D6000AC014170552780FF02C041E050EACB0131
:101D700084279527215089F70895FC01108211824C
:101D8000128213821682158214821186108617829F
:101D9000128613860895FC018081811109C081811A
:101DA000811106C081E09281911103C080E0089505
:101DB00081E00895DC01FB019C91808198130BC0A8
:101DC00011969C9111978181981305C081E012961C
:101DD0002C919281291380E00895FC013381FB014D
:101DE0002381321302C00C94DA0E80E00895CF9361
:101DF000DF9300D000D0CDB7DEB7FC018089948599
:101E0000998395859A8396859B838C83882389F013
:101E1000BF01645F7F4FCE0101960E94ED0E8111DC
:101E200008C082E00F900F900F900F90DF91CF913C
:101E3000089581E0F7CF2FB7F894FC01808191815C
:101E40002FBF0895FF920F931F93CF93DF93EC0161
:101E50008B01FFB6F8940E941B0F9C019FB7F8946A
:101E6000F801318320839FBF8FB7F89419830883CB
:101E70008FBFFFBEDF91CF911F910F91FF9008950B
:101E80006F927F928F92DF92EF92FF920F931F9348
:101E9000CF93DF937B0122E0E20EF11CDB0115966C
:101EA0002D913D914C91232B242B09F44FC0EB0134
:101EB0008C01DFB6F8949C819F7090619C83C8016F
:101EC0000E941B0F009709F43EC0FC013297A1F05D
:101ED0006580768087802D813E814F81CF0102967B
:101EE00062167306840650F42619370948092D83B3
:101EF0003E834F838C01E4CF90E080E02FB7F894CD
:101F00009B838A832FBF8FB7F894D801ED92FC9200
:101F10008FBF309761F085819681A7812D813E81A9
:101F20004F81821B930BA40B85839683A783DFBE0F
:101F3000DF91CF911F910F91FF90EF90DF908F90E5
:101F40007F906F900895F0E0E0E0D8CFB70102965F
:101F5000DF91CF911F910F91FF90EF90DF908F90C5
:101F60007F906F900C94220F1F93CF93DF93EC011F
:101F7000FB012885922F9770943079F040F49230CD
:101F800051F0933039F1DF91CF911F910895953041
:101F900009F19630C1F711E012C023FD21C02A8556
:101FA0003B852550310913E02115310541F040E012
:101FB0002D833E834F83BE01CF010E94400FE881F5
:101FC000F9810680F781E02D612FCE01DF91CF915D
:101FD0001F91099423FDD7CF2A853B8515E0E4CFD7
:101FE00025E030E012E0E3CFFF920F931F93CF93F1
:101FF000DF93EC018B01E889FF24F394FE0EF88A4D
:10200000E80FF92FF11D228530E0A4E6B0E00E9430
:10201000912B2AE030E040E050E00E946F2B2D83AE
:102020003E834F83F0FE11C08A899B8960E0911145
:1020300001C061E00E945205BE01C801DF91CF914D
:102040001F910F91FF900C94400FCE010E94310E12
:10205000F3CFEF92FF920F931F93CF93DF93EC0197
:10206000FFB6F8940E941B0F8C01892B71F0EFB61C
:10207000F894CE010E941B0F0E941B0F9C019FB77A
:10208000F894398328839FBFEFBEFFBEC801DF915C
:10209000CF911F910F91FF90EF900895BF92CF9233
:1020A000DF92EF92FF920F931F93CF93DF93EC0198
:1020B000FFB6F8948C818F708C8381E893E00E9446
:1020C0001B0F0097C9F19C012250310981E893E070
:1020D0002115310589F189010E5F1F4FC217D30702
:1020E00009F50E942910C8010E941B0F009779F082
:1020F000FC01329761F085819681A7812D813E8117
:102100004F81820F931FA41F85839683A783FFBEF1
:10211000DF91CF911F910F91FF90EF90DF90CF90C3
:10212000BF900895C8010E941B0F009729F09C01E1
:1021300022503109C801CCCF6E0182E0C80ED11CFB
:10214000EFB6F894BFB6F89483E893E00E941B0FB3
:10215000EC0123E833E0209779F010E000E0CC16A2
:10216000DD0609F48901CE010E941B0F9E010115B5
:10217000110521F4EC01EFCF10E000E0BFBE011526
:10218000110511F4EFBEC3CFC8010E942910FACF88
:10219000EF92FF920F931F93CF93DC0118960D914E
:1021A0001C91F80181850E942905D8011896CC91CF
:1021B0001897C3FBEE24E0F8F12C8E151F04C9F12B
:1021C00080FBC3F91896CC93C770C33031F0C5308B
:1021D00021F0C130C1F4C4E007C0F801808583FF5D
:1021E00012C0C33021F1C6E0C8010E944E1085E044
:1021F00090E0A0E0F80185839683A783B80181E889
:1022000093E00E94400FD80118968C911897877020
:102210008C1779F0ED91FC910680F781E02D6C2F01
:10222000C801CF911F910F91FF90EF900994C2E0E8
:10223000DBCFCF911F910F91FF90EF90089581E92F
:1022400097E00E944E1061E977E081E893E00C94FA
:10225000400F8F929F92AF92BF92CF92DF92EF92F8
:10226000FF92CF93DF93EC014A015B0181E893E099
:102270000E941B0F0097B9F481E08887CE010E946D
:102280004E108D829E82AF82BE0181E893E0DF9185
:10229000CF91FF90EF90DF90CF90BF90AF909F9045
:1022A0008F900C94400F0297C12CD12C760100978F
:1022B00019F3FC01258136814781642FA90170E063
:1022C000C40ED51EE61EF71EC817D90739F00296B0
:1022D0000E941B0F009781F20297E9CFC814D9041E
:1022E000EA04FB0448F2DF91CF91FF90EF90DF907A
:1022F000CF90BF90AF909F908F900895CF92DF9234
:10230000FF920F931F93CF93DF938C01FFB6F89446
:102310000E941B0F009771F1EC01229759F18D81FA
:102320009E81AF810197A1098D839E83AF83680150
:1023300082E0C80ED11C8D819E81AF81892B8A2BB2
:10234000C9F4C8010E9429108C81982F9F7080FFCA
:102350001BC09C83E881F9810190F081E02DB801D8
:10236000CE010995C8010E941B0F009719F0EC01DE
:10237000229709F7FFBEC801DF91CF911F910F91FE
:10238000FF90DF90CF900895BE016E5F7F4FC60132
:102390000E94220FE7CF08958FB90000779BFECFF0
:1023A0008FB108958DB99EB9089581E591E00E949D
:1023B000D2110E94F30D80E00E94CC110C94EF0D1D
:1023C000CF93DF93D82FC62F81E591E00E94D211E1
:1023D0000E94F30D8D2F0E94CC118C2F0E94CC11E6
:1023E000DF91CF910C94EF0DCF93C82F81E591E051
:1023F0000E94D2110E94F30D8C2F0E94CC11C82F85
:102400000E94EF0D8C2FCF91089586E30E94F41166
:102410008DE30E94F4118AE30C94F411CF93DF93BF
:10242000D82FC62F81E591E00E94D2110E94F30DB2
:102430008D2F8C2B0E94CC1180E00E94CC11C82FD4
:102440000E94EF0D8C2FDF91CF910895CF92DF92F4
:10245000EF92FF920F931F93CF93DF936C01EB01E9
:102460007B01E40EF51E10E000E0CE15DF0561F003
:102470006991D601ED91FC910190F081E02DC601AA
:102480000995080F191FF1CFC801DF91CF911F9156
:102490000F91FF90EF90DF90CF9008954F925F9251
:1024A0006F927F928F929F92AF92BF92CF92DF9264
:1024B000EF92FF920F931F93CF93DF93EC014C01A8
:1024C00024E0820E911CFC01E058FF4F0190F08146
:1024D000E02DC40109957C018EEFE8168FEFF80618
:1024E00008F0D6C0FE01ED57FF4F10816E0192E853
:1024F000C90ED11CF6010081B2978081813009F4A8
:102500006CC008F460C0823009F471C0833009F4F3
:1025100078C0FE01EA5AFF4F008331961083B7015D
:10252000C4010E94340C712C009709F4ADC07E01E7
:10253000F4E5EF0EF11CBC01C4010E94F10BFE0199
:10254000E55AFF4F60803C966081C7010E941A0CDB
:10255000582EFE01E859FF4F6081C7010E941A0CF6
:10256000A82EFE01E759FF4F6081C7010E941A0C97
:10257000782EF701068110160CF086C0B484A60CE4
:10258000A1942B2D4A2D652D82810E94530B182F6B
:10259000F70182832B2D4A2D652D83810E94600BCC
:1025A000F7018383F1E0BF1609F485C0BF1698F1E7
:1025B00022E0B21609F485C093E0B91609F48CC084
:1025C000082F212F2CC0FE01EE5AFF4F0190F08101
:1025D000E02DC4010995180F9CCFFE01EE5AFF4F64
:1025E0000190F081E02DC4010995081B92CFFE01F6
:1025F000EE5AFF4F0190F081E02DC4010995181BA0
:1026000088CFFE01EE5AFF4F0190F081E02DC4010A
:102610000995080F7ECF202F210F062D080F482F78
:10262000612FC4010E94580A882371F1F7011482B6
:1026300015828E010D591F4F5E01F4E6AF0EB11CDD
:10264000F8016081C7010E94C60B482EF501608128
:10265000C7010E94C60B582E40E0642DC4010E94A1
:102660006D0B41E0652DC4010E946D0B61E0C70157
:102670000E94C60B8111F0CFF7018581861504F306
:10268000C258DF4F82858883F6018081780E708280
:1026900081E090E0DF91CF911F910F91FF90EF903B
:1026A000DF90CF90BF90AF909F908F907F906F9072
:1026B0005F904F900895B61821E0210F080F1B0D71
:1026C000AECF91E0392F301B21E0210F961901E0A8
:1026D000080F890F130FA3CF262D210F982F901BC2
:1026E00001E0080F81E0890F9ACF90E080E0089523
:1026F0008F929F92AF92BF920F931F93CF93DF93CE
:10270000CDB7DEB7A1970FB6F894DEBF0FBECDBF31
:1027100019A2423008F44AE08E010F5D1F4F842E4B
:10272000912CB12CA12CA50194010E946F2BE62FB6
:10273000B901CA01EA3044F5E05DD801EE938D019C
:10274000232B242B252B79F790E080E0109769F05C
:10275000FD0101900020E9F73197AF014A1B5B0BA7
:10276000BD018CED92E00E943C06A1960FB6F89454
:10277000DEBF0FBECDBFDF91CF911F910F91BF90F4
:10278000AF909F908F900895E95CD7CFCF93C82FDB
:10279000803128F460E38CED92E00E94D1066C2F2A
:1027A00070E090E080E040E1CF910C947813EF92DC
:1027B000FF920F931F93CF93DF93EC0188810E94C8
:1027C000C61382EC90E00E94790E89810E94C613A4
:1027D00080EC90E00E94790E8A810E94C6138EEBF5
:1027E00090E00E94790E8B810E94C6138CEB90E0E2
:1027F0000E94790E8C810E94C6138D810E94C6139F
:102800008E810E94C6138AEB90E00E94790E8F8120
:102810000E94C61388850E94C61389850E94C6132C
:1028200088EB90E00E94790E088109502A967E017B
:1028300010E0C7018C1B9D0B8017910754F4F70122
:1028400081917F010E94C6138FEA90E00E94790E69
:10285000F0CF84EB90E00E94790E2FB7F89460914E
:10286000D4027091D5028091D6029091D7022FBFE9
:102870004AE00E94781381EB90E0DF91CF911F91A5
:102880000F91FF90EF900C94790ECF92DF92EF9220
:10289000FF926B017C0180E1C816D104E104F104D0
:1028A00068F487EA90E00E94180740E1C701B6018A
:1028B000FF90EF90DF90CF900C9478138FEFC816B5
:1028C000D104E104F10409F018F480EA90E0EBCFC0
:1028D000C11480E1D806E104F10418F48AE990E01B
:1028E000E2CFC114D10481E0E806F10418F485E9CF
:1028F00090E0D9CFC114D10480E1E806F10418F4C6
:1029000081E990E0D0CFC114D104E10481E0F80660
:1029100018F48EE890E0C7CFC114D104E10480E13F
:10292000F80618F68CE890E0BECFFC01019000207C
:10293000E9F73197AF01481B590BBC018DEF98E0C7
:102940000C9426120F931F93CF93DF93D82FC62F8B
:10295000142F0E94E01160E88D2F0E940E12082FA4
:1029600081E0C01769F0112381F04FEF410F6C2F08
:102970008D2F0E94A214E6E6FEE03197F1F70000E9
:10298000DF91CF911F910F9108958DE393E00E9405
:10299000790E8D2F0E94C61381E393E00E94790E79
:1029A0008C2F0E94C61389E293E00E94790E802F3B
:1029B0000E94C61386E293E00E94790E80E0E0CF89
:1029C0000F931F93CF93DF93EC018B010E944E1066
:1029D000CE010E94310EB80183E0660F771F8A9501
:1029E000E1F762527D4F48E050E0CE0108960E9428
:1029F0000D2B8885882359F0188A198A61E873E0BD
:102A0000CE01DF91CF911F910F910C94F40FDF91C4
:102A1000CF911F910F9108950F931F93CF93DF9341
:102A200000D01F92CDB7DEB78B0143E050E0BC0170
:102A3000CE0101960E940D2B9A818B812981F8018C
:102A40002083918382830F900F900F90DF91CF911D
:102A50001F910F9108951F93CF93DF93EC011FB740
:102A6000F89498898885981740F4CE010E94F40F55
:102A70001FBFDF91CF911F910895188A99859923DF
:102A8000A1F389898F5F898B891778F3CE010E9422
:102A9000310E48E050E06EED72E0CE0108960E94E3
:102AA0000D2BE6CFCF93DF931F92CDB7DEB7FC019E
:102AB00080819181680F792F711D498341E050E039
:102AC000CE0101960E94262B81E00F90DF91CF91DD
:102AD00008950F931F93CF93DF931F92CDB7DEB767
:102AE00083E591E00E947B0E10E000E0198241E056
:102AF00050E0B801CE0101960E94262B0F5F1F4FB8
:102B00000430110599F7F0E0E0E009950F90DF91AE
:102B1000CF911F910F910895CF93DF931F92CDB75F
:102B2000DEB7198241E050E0BC01CE0101960E945F
:102B3000162B89810F90DF91CF910895EF92FF922C
:102B40000F931F93CF93DF93EC018B01FB018081E7
:102B5000918103960E948C15F82EF8018081918155
:102B600002960E948C15E82EF801808191810196D1
:102B70000E948C158883E982FA82CE01DF91CF9181
:102B80001F910F91FF90EF900895CF93DF93EC0189
:102B9000CB011A82198218821B82642F04960E942C
:102BA0002C06009731F044E050E0BC01CE010E94B9
:102BB000162BCE01DF91CF910895EF92FF921F93D4
:102BC000CF93DF9300D000D0CDB7DEB77C0110E00B
:102BD000412FB701CE0101960E94C515CE01019685
:102BE0000E94CB0E882321F01F5F163089F71FEF5C
:102BF000812F0F900F900F900F90DF91CF911F9129
:102C0000FF90EF900895AF92BF92CF92DF92FF9224
:102C10000F931F93CF93DF9300D000D000D01F926B
:102C2000CDB7DEB7FC01211126C082AD93AD9A83EA
:102C3000898384E08B8382E09EE09D838C8387EF91
:102C40009DE09F838E8329813A814B815C816D81D8
:102C50007E818F8190E027960FB6F894DEBF0FBE7D
:102C6000CDBFDF91CF911F910F91FF90DF90CF905B
:102C7000BF90AF900895662309F475C081AD8617A3
:102C800008F471C004AD15AD213069F4F8018485F4
:102C900095859A8389832B8388E59EE09D838C8329
:102CA00082E59EE0CECF223079F4F80184859585C7
:102CB00001969A83898381E08B838AE296E09D83E3
:102CC0008C8380E59EE0BDCF6A01233001F5580179
:102CD000F8E0AF0EB11CF12C4F2DB501CE010196DD
:102CE0000E94C515B601CE0101960E94ED0E882303
:102CF00039F06F2DC8010C960E942C060496D9CF8E
:102D0000F39486E0F812E8CF90E080E0D2CF243050
:102D100051F55801E8E0AE0EB11CF12C4F2DB50174
:102D2000CE0101960E94C515B601CE0101960E9402
:102D3000ED0E882389F06F2DC8010C960E942C0699
:102D400005969A83898381E08B838AE49EE09D8344
:102D50008C8384E49EE075CFF394F6E0FF12DECF1F
:102D600090E080E0EECF1A8219821B821D821C82C5
:102D70001F821E8268CFAF92BF92CF92DF92EF92F6
:102D8000FF921F93CF93DF9300D000D0CDB7DEB773
:102D90007C016B0110E05C0184E0A80EB11C412FA6
:102DA000B701CE0101960E94C515B601CE0101966C
:102DB0000E94ED0E882379F01B821A8219821C82F0
:102DC000612FC5010E942C0644E050E0BC01CE01F9
:102DD00001960E94262B1F5F163009F781E00F90A5
:102DE0000F900F900F90DF91CF911F91FF90EF9078
:102DF000DF90CF90BF90AF900895EF92FF920F9326
:102E00001F93CF93DF93EC01142F7901683199F16F
:102E100060F46431E9F0673191F080E0DF91CF91A7
:102E20001F910F91FF90EF900895693109F460C0F0
:102E3000603299F76AE4CE010E942F081AC011236C
:102E4000C1F0F70181917F010E94CC111150F7CFA1
:102E5000E881F98180859185A285B3858C879D87DE
:102E6000AE87BF87418169E4CE010E942F080E948E
:102E70006A0781E0D3CFE881F981E485E15080E001
:102E8000E33020F4F0E0EA58FE4F80810C851D8588
:102E90002E853F8540EC5FEC6AE670E090E0041719
:102EA00015072607370740F4769567955795479598
:102EB0009F5F9630A1F797E08C708065292F26954B
:102EC0009095822B91700E94D211E881F981408106
:102ED00069E4CE010E942F08A881B981EA85FB85AB
:102EE00030E020E012964C916CE2CE010995C1CF02
:102EF000A881B981EA85FB8530E020E013964C91EA
:102F00006CE20995E881F981418169E494CFFC0183
:102F1000A081B18150962C9183AD38E0839FC00190
:102F20001124289FA001299F500D112470E060E01A
:102F300081AD92AD0C940C2DAF92BF92CF92DF92E7
:102F4000EF92FF920F931F93CF93DF938C016B014E
:102F5000DC011B961C927C01BFE0EB0EF11C60ECC7
:102F60008BE30E940E1218160CF044C060E88FE349
:102F70000E940E12C82F8A3208F06CC081E591E0E1
:102F80000E94D2110E94F30D8FEF0E94CC11DE2D12
:102F900057018A2D8D1B8C1738F480E00E94CC11CC
:102FA000F50181935F01F5CF0E94EF0D60E88FE39B
:102FB0000E940E12282F30E0082E000C990B882753
:102FC0009170A901481B590BCA0157FD01969595AF
:102FD0008795919581959109865BD80111968C937F
:102FE00060E88FE30E940E1287FD05C088E491E03F
:102FF0000E947B0EC0E08AE30E94F411ECEBF2E049
:103000003197F1F700000E94051284E30E94F41149
:10301000CC23D1F1D8011E96CC931E971F968C918C
:103020001F9796E798271F969C9321E04C2F50E01E
:10303000BA0161507109A22FB0E0F701EA0FFB1F3E
:103040009081A617B707B4F48452892780832F5F35
:10305000892FF1CF87E391E00E94790E6C2F70E009
:1030600090E080E04AE00E94781384E391E00E94BF
:10307000790EC0CFD80150968C9189278083B701F3
:10308000C60101960E94032DF601C083D8011E9649
:103090001C921E971D968C91882339F00E94D511A1
:1030A00084E30E94F411F8011586D6018C91DF911A
:1030B000CF911F910F91FF90EF90DF90CF90BF9035
:1030C000AF9008952F923F924F925F926F927F92AE
:1030D0008F929F92AF92BF92CF92DF92EF92FF9228
:1030E0000F931F93CF93DF93CDB7DEB7AF970FB694
:1030F000F894DEBF0FBECDBF6C018B01FA01808159
:10310000DB0117968C931797818118968C931897EB
:10311000828119968C9369E773E0CA010E94DA0EE6
:10312000882329F0F80182818F7D84608283B80131
:103130006C5F7F4FD601D7968D919C910E940C15A4
:10314000F801828180688283D60112968D919C91CC
:1031500062E070E002960E94E01436E0732EF801FF
:103160003196FEA7EDA74AE0442E512C612C480170
:10317000F7E08F0E911CD6011296ED90FC90F801AD
:1031800082818071282E5701FFE2AF0EB11CD80159
:103190004C9150E06DA57EA5C5010E94032DF8015C
:1031A0002081D7019E962C939E979F968C91B6E78F
:1031B0008B27F70187A790A961E02150330B462F99
:1031C00050E0F501E40FF51F7081421753072CF40E
:1031D0008452872780836F5FF2CF892F8727808370
:1031E000D7019E96BC91BCA7B7016E5D7F4FF701DA
:1031F000F2A5FBA7FF2331F086E69EE00197F1F7E9
:103200000000F5CFD70197964D925D926C929997F9
:10321000E1E09A96EC9381E893E00E94400FD70199
:103220009D968C91882349F00E94D5110E94051229
:1032300084E30E94F411F70115A6E1E0D7019C9602
:10324000EC9386E30E94F4118BE30E94F41128ECC6
:10325000322E85E30E94F41180E791E00197F1F7A7
:1032600000C03A9431104AC086E30E94F4118BE307
:103270000E94F4118DE30E94F41184E30E94F41182
:1032800060EC85E30E940E128D30B9F7B12CD701A6
:103290009C961C9286ED90E00E94790EC8010E94D7
:1032A000D7137A94BB2009F4DAC0F801828185FD36
:1032B0006EC0D60112968D919C91B1E0BBA763E0E0
:1032C00070E002960E94E0148BA5AF960FB6F894BA
:1032D000DEBF0FBECDBFDF91CF911F910F91FF9049
:1032E000EF90DF90CF90BF90AF909F908F907F90A6
:1032F0006F905F904F903F902F90089560EC85E322
:103300000E940E12833109F0A4CFAFEFBFE81197EE
:10331000F1F700C00000222049F0BFEFEFEBFFE023
:10332000B150E040F040E1F700C000006CA58FE331
:103330000E94E01181E591E00E94D2110E94F30DFC
:103340008FE70E94CC11AFA61501822D2FA5821BFD
:103350009CA5891730F4D1018D911D010E94CC11DB
:10336000F4CF0E94EF0D98ECB92E60EC85E30E943B
:103370000E128D3019F4BB24B39489CFE0E7F1E04D
:103380003197F1F700C0BA94B110EFCFF4CFC40178
:103390000E94CB0E882309F48CCFCE0101960E94A7
:1033A000BD0E8CE3F82EF60182819381DC019B96A1
:1033B0002C9121110BC0EFEFFFE83197F1F700C01E
:1033C0000000FA94F110EFCFF12C3CC0BE016F5F0A
:1033D0007F4F80960E949C17882369F387EC90E0CA
:1033E0000E94790ECE0101960E94D713D801119642
:1033F0009C918A819813DFCFBE016B5F7F4FC40120
:103400000E94DA0E8823B9F28C81F12C823041F4CB
:103410008B85F82EF094FF1CFF24FF1C87FD712C78
:10342000F801828181FD03C08B8180FF0BC0D60132
:1034300012968D919C9142E350E060E070E04796D7
:103440000E9429118CEC90E00E94790E8F2D0E9431
:10345000C6138BEC90E00E947B0EF1102ACF711006
:103460008ACEF6018281938164E070E02ACF0F93C7
:103470001F93CF93DF93EC018B018AE18B871E862C
:103480001D864C871E8A6FA978ADFB0171968491C9
:103490003197E491ED8B8AA3625F7F4F42E050E069
:1034A000CE0146960E940D2B6FA978AD6D5F7F4FC0
:1034B0004AE050E0CE0148960E940D2B89AD8BA3C7
:1034C0006FA978AD6E5E7F4F42E050E0CE018496EA
:1034D0000E940D2BBE01655F7F4FA801CE01DF91D9
:1034E000CF911F910F910C946218EF92FF920F935E
:1034F0001F93CF93DF9300D01F92CDB7DEB78C011F
:10350000E62EDC0118968C918770F82EC8010E9477
:10351000810EB2E0EB1236C0F80106891789D80196
:103520001696FC901697F3941696FC92169714969E
:103530006D917C91CE0101960E949E154F2DBE018A
:103540006F5F7F4FC8010E94371AF8018281938113
:1035500061E070E002960E94E014D80112968D910D
:103560009C9140ED57E060E070E047960E94291181
:103570000F900F900F90DF91CF911F910F91FF90BF
:10358000EF900895B5E0EB12F3CFFB1203C00E9459
:103590006915EECFD8015696ED91FC918281938109
:1035A00067E070E002960E94E014E2CFCF93DF93D1
:1035B000EC01CB0128EE33E040E02D833E834F83C6
:1035C000BE010E94400F85EF90E099AF88AF98E36D
:1035D0009AAFE885F98586818F5F86832CE02E87F8
:1035E00020E7298B188E8F8785EF898F9A8F8885A2
:1035F000998526E0288BBE01625F7F4F49E753E043
:10360000DF91CF910C9462183F924F925F926F922C
:103610007F928F929F92AF92BF92CF92DF92EF9262
:10362000FF920F931F93CF93DF93CDB7DEB7E5974C
:103630000FB6F894DEBF0FBECDBF7C018B0119AA77
:1036400018AA1FA6BE01615D7F4FDC01D7968D9140
:103650009C910E940C15F8013796FDABECABBE01B6
:10366000615D7F4FCF010E94DA0EC82E882309F4D6
:1036700062C0D7011296CD90DC905601B2E2AB0E3B
:10368000B11CC5010E944E108AE090E0A0E0F60156
:1036900087A390A7A1A781E082A7B50181E893E065
:1036A0000E94400F80E391E00E94790EC8010E94C1
:1036B000D713D80112968C9186FD94C0D801149628
:1036C0008C911497F701878315968C9115978087B5
:1036D00016968C911697818711968C9111978287F7
:1036E00013968C9113971A96BC901A971B965C9020
:1036F000813009F094C3FAE05F1287C0D701D796F2
:103700006D917C916D5F7F4F4AE050E0CE01019654
:103710000E940D2B4AE050E0BE016F5F7F4FC80151
:103720000C960E94F62C892B09F4EBC0D12CC12CED
:1037300032E0532EA5C0F8018081898381818A837C
:10374000B280BB82D380DC8284818D8385818E832D
:1037500086818F83878188878085898781858A870D
:1037600082858B87A384AC868EE13C96DE011D9614
:1037700001900D928A95E1F769E773E0CE01089612
:103780000E94DA0E882339F0F1E0DF1204C02AE04B
:10379000A21609F46ECFB2FE05C080EC8D0D82300A
:1037A00008F467CF88E291E00E94790EC8010E9478
:1037B000D7138C2DE5960FB6F894DEBF0FBECDBFA4
:1037C000DF91CF911F910F91FF90EF90DF90CF90FD
:1037D000BF90AF909F908F907F906F905F904F9031
:1037E0003F900895B8016C5F7F4FC70107960E9414
:1037F000DA0E882309F462CFD7011A969C91F8015A
:10380000818198135BCFC12CD4CFB1E05B12F6C09D
:10381000BB2009F48BCFD701D9968C91D9978B1502
:1038200008F484CFDC96CD90DC90C8010E94F70E9E
:103830004801BCE08B0E911C5601E8E0AE0EB11CB5
:10384000813009F07CC0B401C5010E94BB16C501DE
:103850000E94DD15782EFFEF8F1709F469CF682FCE
:10386000C6010C960E942C0644E050E0BC01C40145
:103870000E94262B472DB501CE0101960E94600EB5
:10388000D80112968C9185FF2EC0BE01615D7F4FDD
:103890008CA99DA90E94DA0E882329F1B1E05B1260
:1038A00082C3A8014C5F5F4FC114D10409F46AC3FD
:1038B000D7011296ED91FC9181A19EE0F8019083D1
:1038C00092E0938312825286D6011B969C91938735
:1038D000148615868687B801C7010E946218F60112
:1038E00082858E7F8287D70112968D919C9142E3CB
:1038F00050E060E070E047960E942911CC24C39408
:1039000058CFF7018281938161E070E002960E94B6
:10391000E014D70112968D919C9140ED57E060E044
:1039200070E047960E942911F8014081B8016C5F50
:103930007F4FC7010E94371AD12CC12CB3C2D801C6
:1039400050968C9150971C969C911C9799831D962C
:103950009C911D979A831E969C919B838C83B401A6
:10396000C5010E94BB16BE016F5F7F4FC5010E945B
:10397000BB16C5010E94DD15482EBFEF8B1709F459
:10398000D7CE3601ECE06E0E711C682FC3010E9489
:103990002C0644E050E0BC01C4010E94262BC50166
:1039A0000E94DD15382EFFEF8F1719F1682FC30124
:1039B0000E942C0644E050E0BC01CE0101960E941A
:1039C000262BD8011F968C9180FF0BC0442DB5018A
:1039D000CE018B960E94600E432DB501CE018B96D1
:1039E0004DCF432DB501CE018B960E94600E442D24
:1039F000F4CFB401C5010E94BB169ACEB2E05B12AF
:103A000037C0BB2009F492CEF70181AD8B1508F4C5
:103A10008DCEC4ACD5AC5601F8E0AF0EB11CB801E8
:103A2000645F7F4FC5010E94BB16982EC8010E949B
:103A3000F70E8230B9F4D80150968C9150971C96AD
:103A40009C911C9799831D969C911D979A831E9615
:103A50009C919B838C83BE016F5F7F4FC5010E9449
:103A6000BB169822992009F40BCF5524539408CF04
:103A7000B3E05B1270C0BB2009F4EFC0F70191AD59
:103A80009B1508F459CF64AC75ACD80111969C9184
:103A9000119714962C9114972BA715962C91159786
:103AA0002CA716962C912DA75701BBE0AB0EB11C8D
:103AB0002AE1238720E1268720E22587858B9487CA
:103AC0004701E6E18E0E911C6401412C512CF8E077
:103AD0006F0E711C26E0421641F1442DB301CE0158
:103AE00001960E94C515CE0101960E94CB0E882337
:103AF000D1F0539484E0FE013196D60101900D92ED
:103B00008A95E1F784E0C80ED11C94E059120BC0ED
:103B1000AE01455D5F4FB501C7010E9462186401A7
:103B2000512C882311F04394D5CF84E0D6011D9207
:103B30008A95E9F7852D880F880F825FF7018387C3
:103B400085858F7D8587AE01455D5F4FB501C701D6
:103B50000E946218F1CEF4E05F1281C0D801509645
:103B60002C91A801445F5F4F6B2DC7010E94031683
:103B700029833A834B835C836D837E838F83E981C2
:103B8000FA81FBABEAAB22E0522EEF2B09F4B6C070
:103B9000D80111968C91119714969C9114979BA71C
:103BA00015969C9115979CA716969C919DA73701F9
:103BB000BBE06B0E711C9AE1F701938790E1968749
:103BC00090E2958792E0958B84872701F6E14F0E6E
:103BD000511C6201B12CA12C312C8B818A151B0444
:103BE00049F144F1EC81FD818A2D0995D6018C9330
:103BF0004601B2E08B0E911C8AA99BA98A0D9B1DE0
:103C00000E948C15F60181833394F8E03F120BC0BB
:103C1000AE01455D5F4FB301C7010E946218882362
:103C200039F04201312C2FEFA21AB20A6401D5CF2C
:103C30006201312CD6011C9211961C92B6E03B0E0B
:103C4000330CF701338685858F7D8587AE01455D11
:103C50005F4FB301C7010E946218512C4FC0FEE0B4
:103C60005F122CC0D701DC96CD90DC90DD97F80177
:103C700021811296ED91FC9181A1D6011B969C9118
:103C8000F701538630E1368736E0358B2487968BF3
:103C9000178A108E818F82E08587A8014C5F5F4F65
:103CA000B701655F7F4FC7010E946218D6011A965F
:103CB0008C911A978E7F1A968C933ECEB5E05B124C
:103CC00020C0F701B6AED80150962C91A801445FF0
:103CD0005F4F6B2DC7010E940316F70127AFE05C11
:103CE000FF4F308331964083319650833196608305
:103CF000319670833196808355245394D12CC12CF6
:103D0000BFCDF6E05F1230C0F701FF962081318110
:103D1000D701DA968D919C91DB972817390781F4AA
:103D200012968D919C9170E060E002960E94E014E2
:103D3000D701ED91FC910480F581E02DC701099533
:103D40008FEFF70186AF8AE0D8018C9382E013965B
:103D50008C93139712968C9312971A961C92A80123
:103D60004C5F5F4FB801F3CEB8E05B1238C0F7018B
:103D700086AD8B11C1CF5701FFE3AF0EB11CD5014A
:103D80008D919C91892B09F4B7CFF80180818B30FC
:103D900008F48BE095EF592E580E4801FCE08F0E89
:103DA000911C6401370124E4620E711C8C2D88196A
:103DB000851508F0A1CFD60111964C90D301ED9155
:103DC000FC91D6018C9109958F3F29F0442D682FE5
:103DD000C5010E945215B2E0CB0ED11CE7CFE9E03D
:103DE0005E12A4CCD80111968C9194E1F7019387CF
:103DF00090E196871586158A8487168A67A970AD23
:103E00006D5F7F4F4AE050E0C70146960E940D2B40
:103E1000A8014C5F5F4FB701655F7F4F98CE81313E
:103E200009F05FC0F4E0BF1619F02AECB21226C008
:103E30008AE0D8018C9382E013968C9313971296A4
:103E40001C9212971A961C92A8014C5F5F4FB80102
:103E5000C7010E946218BAECBB120DC083E191E069
:103E60000E947B0E88E19CE00FB6F894A89581BD76
:103E70000FBE91BDFFCF0E9469155ECD552009F49C
:103E80003DCFF70181AD851508F456CDC4ACD5AC56
:103E9000F2E0BF1601F1FB1538F0BB2079F021E00C
:103EA000B216A1F0512CECCC83E0B81609F4DDCDAC
:103EB00090E8B912F7CFF601828510C0D6011A96A4
:103EC0008C911A978D7F1A968C93CFCDF6018285AF
:103ED00082608287CACDD6011A968C9181FF28CC48
:103EE000E1CF823139F48EE191E00E947B0ED12C3A
:103EF000C12CBBCD8054823008F018CC44244394AC
:103F0000612CD12CC12C82E0582ED701D9968C91EE
:103F1000D997841590F1DC96AD90BC90F50182851F
:103F200081FD29C04501F8E08F0E911CD8011A9639
:103F30008C911A978F7314969C9114979BA7159642
:103F40009C9115979CA716969C919DA78EA7712C66
:103F5000472DB401CE0101960E94C515BE016F5FC9
:103F60007F4FCE018B960E94ED0E81112AC0739473
:103F7000B6E07B12EDCF4394C8CFE1E0E61508F43C
:103F8000BDCE7ECC8AE0D8018C9382E013968C93D0
:103F9000139712961C9212971A961C92B801C70199
:103FA0000E946218A0CCB2E05B129DCC8AE0F801BE
:103FB00080835382128280E88287A8014C5F5F4F22
:103FC000EDCF6394650155245394D5CF0C946D2C9B
:103FD000CF93DF93EC010E940F0ECE01DF91CF91C2
:103FE0000C946D2C0C946D2C0C946D2C0C946D2CED
:103FF0000C946D2C0C946D2C0C946D2C0C946D2CDD
:104000001F920F920FB60F9211242F933F938F930D
:104010009F93AF93BF938091D4029091D502A091CA
:10402000D602B091D7023091D30225E1230F2D376C
:1040300058F50196A11DB11D2093D3028093D4029F
:104040009093D502A093D602B093D7028091D80264
:104050009091D902A091DA02B091DB020196A11DE4
:10406000B11D8093D8029093D902A093DA02B09345
:10407000DB02BF91AF919F918F913F912F910F9054
:104080000FBE0F901F90189528E9230F0296A11DCF
:10409000B11DD2CF1F920F920FB60F9211240BB603
:1040A0000F922F933F934F935F936F937F938F93D1
:1040B0009F93AF93BF93EF93FF93E0910E01F09125
:1040C0000F010995FF91EF91BF91AF919F918F9152
:1040D0007F916F915F914F913F912F910F900BBE08
:1040E0000F900FBE0F901F9018951F920F920FB652
:1040F0000F9211240BB60F922F933F934F935F9320
:104100006F937F938F939F93AF93BF93EF93FF939F
:10411000E0910C01F0910D010995FF91EF91BF9194
:10412000AF919F918F917F916F915F914F913F914F
:104130002F910F900BBE0F900FBE0F901F901895F0
:104140001F920F920FB60F9211240BB60F922F935E
:104150003F934F935F936F937F938F939F93AF930F
:10416000BF93EF93FF93E0910A01F0910B01099542
:10417000FF91EF91BF91AF919F918F917F916F913F
:104180005F914F913F912F910F900BBE0F900FBEFB
:104190000F901F9018951F920F920FB60F92112437
:1041A0000BB60F922F933F934F935F936F937F9331
:1041B0008F939F93AF93BF93EF93FF93E091080189
:1041C000F09109010995FF91EF91BF91AF919F91F6
:1041D0008F917F916F915F914F913F912F910F90B0
:1041E0000BBE0F900FBE0F901F9018951F920F924D
:1041F0000FB60F9211240BB60F922F933F934F934C
:104200005F936F937F938F939F93AF93BF93EF933E
:10421000FF93E0910601F09107010995FF91EF915D
:10422000BF91AF919F918F917F916F915F914F91CE
:104230003F912F910F900BBE0F900FBE0F901F90CC
:1042400018951F920F920FB60F9211240BB60F9272
:104250002F933F934F935F936F937F938F939F938E
:10426000AF93BF93EF93FF93E0910401F0910501A9
:104270000995FF91EF91BF91AF919F918F917F91A0
:104280006F915F914F913F912F910F900BBE0F90C7
:104290000FBE0F901F9018951F920F920FB60F929E
:1042A00011240BB60F922F933F934F935F936F930D
:1042B0007F938F939F93AF93BF93EF93FF93E0917F
:1042C0000201F09103010995FF91EF91BF91AF9128
:1042D0009F918F917F916F915F914F913F912F911E
:1042E0000F900BBE0F900FBE0F901F9018951F924E
:1042F0000F920FB60F9211240BB60F922F933F938C
:104300004F935F936F937F938F939F93AF93BF93DD
:10431000EF93FF93E0910001F09101010995FF9166
:10432000EF91BF91AF919F918F917F916F915F912D
:104330004F913F912F910F900BBE0F900FBE0F909A
:104340001F9018951F920F920FB60F9211240BB663
:104350000F922F933F934F935F936F937F938F931E
:104360009F93AF93BF93EF93FF938CED92E00E94E6
:10437000B006FF91EF91BF91AF919F918F917F9187
:104380006F915F914F913F912F910F900BBE0F90C6
:104390000FBE0F901F9018951F920F920FB60F929D
:1043A00011240BB60F922F938F939F93EF93FF934C
:1043B000E091EC02F091ED028081E091F202F09147
:1043C000F30282FD1DC090818091F5028F5F8F7393
:1043D0002091F602821741F0E091F502F0E0E452FC
:1043E000FD4F958F8093F502FF91EF919F918F91F3
:1043F0002F910F900BBE0F900FBE0F901F9018952E
:104400008081F2CF1F920F920FB60F9211240F905E
:104410000FBE0F901F9018951F920F920FB60F921C
:1044200011240BB60F922F933F934F935F936F938B
:104430007F938F939F93AF93BF93EF93FF93ECE79B
:10444000F3E084818F5F8483CF010E947E11FF910E
:10445000EF91BF91AF919F918F917F916F915F91FC
:104460004F913F912F910F900BBE0F900FBE0F9069
:104470001F9018951F920F920FB60F9211240BB632
:104480000F922F933F934F935F936F937F938F93ED
:104490009F93AF93BF93EF93FF9381E893E00E94C4
:1044A0007E11FF91EF91BF91AF919F918F917F917D
:1044B0006F915F914F913F912F910F900BBE0F9095
:1044C0000FBE0F901F9018951F920F920FB60F926C
:1044D00011240BB60F922F933F934F935F936F93DB
:1044E0007F938F939F93AF93BF93EF93FF938091AD
:1044F0007100887F803609F44DC008F040C08832D2
:1045000009F4A7C028F5803109F49BC0C8F48823BA
:1045100009F4F7C0883009F494C0FF91EF91BF917E
:10452000AF919F918F917F916F915F914F913F914B
:104530002F910F900BBE0F900FBE0F901F901895EC
:10454000883109F486C0803241F78093A50214C0F7
:10455000803409F49BC040F48033B9F38833E9F622
:104560008093A50285ECAEC0803509F483C0883500
:1045700009F494C0883489F60E949C0DCECF883906
:1045800009F48AC038F5883729F050F4883611F0DC
:10459000803719F683E08093A6021092A40255C0DA
:1045A000883809F479C0803919F0803809F0B5CF1E
:1045B0008091A402803208F06FC0E091A40281E0F3
:1045C0008E0F8093A40280917300F0E0EC57FD4FB2
:1045D00080833BC0803B39F0D0F4803A09F477C047
:1045E000883A09F09ACF84E08093A6021092830261
:1045F00010928202F0E0E0E0099580918202811140
:104600000FC081E0809382021092620209C0803C58
:1046100009F4A8CF883C09F4A5CF883B09F07DCFE9
:10462000E091830281E08E0F80938302F0E0EE59E7
:10463000FD4F80818093730090918302809182026C
:1046400029C08091CB028093730085EC8093740025
:1046500064CF9091CA028091C902981758F5E091F1
:10466000CA0281E08E0F8093CA02F0E0E755FD4F49
:104670008081E9CFE091CA0281E08E0F8093CA0267
:1046800080917300F0E0E755FD4F80839091CA025E
:104690008091C9029817C8F285E8D8CFE091CA0284
:1046A00081E08E0F8093CA0280917300F0E0E7559D
:1046B000FD4F80838091A80281115ECF81E08093BD
:1046C000A70284EA809374001092A60226CF85EC9C
:1046D000809374001092A6028091A402803230F47C
:1046E000E091A402F0E0EC57FD4F10826091A4022B
:1046F00070E084E892E0F0E0E0E009951092A40216
:104700000CCF1092A50238CFCF93DF931092DF0227
:104710001092DE0288EE93E0A0E0B0E08093E00229
:104720009093E102A093E202B093E30281E891E06A
:104730009093DD028093DC0280E990E09093E9029F
:104740008093E80289E290E09093EB028093EA0282
:104750008BE290E09093ED028093EC028AE290E08D
:104760009093EF028093EE0285E990E09093F1023E
:104770008093F0028CE290E09093F3028093F20237
:104780001092F5021092F6021092F7021092F802BF
:1047900010927B0310927A03109279031092820395
:1047A00010928103109284031092830310927D0370
:1047B00010927C0310927F0310927E03109280036C
:1047C000109200091092FF088DE794E090937E0903
:1047D00080937D0910927F091092800910921A0926
:1047E00089ED91E09093FE088093FD0810920209F4
:1047F0001092010910921609109219098FEF8093F7
:10480000170980931C09E0E2F9E0DFEFD19389E01A
:10481000E633F807D9F786EB98E090930609809382
:1048200005098FE899E090930809809307098DEFB7
:1048300096E190930A09809309098CE997E0909397
:104840000C0980930B0930E020E040E069E081E052
:1048500099E00E94B60810924E0910924D0987E81F
:1048600094E0909337098093360985E893E090931C
:104870003B0980933A0988E080933C0910923D09F6
:1048800010925A0910927A09C1E0C0937B09C09333
:104890007C098DEE91E0909339098093380981E08D
:1048A00099E00E94140A1092490910924B09D09382
:1048B0004A09D0934C09E0913809F09139090280F6
:1048C000F381E02D81E099E009958AEE94E09093E0
:1048D000500980934F0910925D098CE1809329095A
:1048E0008EE180932A098DE180932B0910927A083A
:1048F000109279088DE794E09093F8088093F70878
:104900001092F9081092FA081092940889ED91E03B
:1049100090937808809377088DEF98E09093FC0847
:104920008093FB0810922308109222081092250809
:1049300010922608109227088FEC91E0909321089E
:10494000809320081092300810923108109232089B
:1049500010923308C0932408109238081092370838
:1049600010923A0810923B0810923C0885EC91E0B6
:10497000909336088093350810923D08C09339080B
:1049800010923F0810924308109242081092450876
:1049900010924608109247088BEB91E090934108E3
:1049A0008093400810924808C09344081092490828
:1049B00010924A0810924B088CE498E00E94BD0EB9
:1049C00083EA91E090939E0780939D071092A00741
:1049D00010929F0787ED97E09093A2078093A1071D
:1049E0001092A3071092A6071092A5071092A40791
:1049F0001092A70788EA97E00E94BD0E80E290E03F
:104A00009093D3078093D20727E433E03093D50700
:104A10002093D407C093D6079093D8078093D707E5
:104A2000D093DB071092DD071092DC071092DE07AF
:104A30001092E0071092DF071092E2071092E10750
:104A40008FEA91E090939E0780939D071092EC0768
:104A50001092EB078091ED078E7F8D7F8093ED079D
:104A60001092EE071092F0071092EF071092E607EF
:104A70001092E5071092E70782E090E0A0E08093B3
:104A8000E8079093E907A093EA0789E991E09093FA
:104A9000E4078093E30781EF97E00E94BD0E109238
:104AA0001C0810921B0810921D0883EE97E090934B
:104AB000DA078093D907109288071092870710921F
:104AC000890710928A0710928B0710928C078091A9
:104AD0008D07887F8160886080938D0710928E0794
:104AE00010929407109293071092950710929607D0
:104AF000109297071092980783E991E0909392079C
:104B00008093910785E897E090939A07809399079F
:104B100085EE91E090938607809385078DE997E075
:104B200090939C0780939B078CE291E09093900771
:104B300080938F07DF91CF910895CF93DF93CDB707
:104B4000DEB728970FB6F894DEBF0FBECDBF7894BE
:104B500083B78C6483BF87B7816087BF92E09EBDB7
:104B60008EB581608EBD8FB581608FBD85B5846047
:104B700085BD85B5806485BD80918A008360809302
:104B80008A0080918B00816080938B0086E886B9D3
:104B90001AB8E091EC02F091ED029083E091E80206
:104BA000F091E9021082E091EA02F091EB028DE1CE
:104BB00080831092F402E091F002F091F10286E01D
:104BC0008083E091EE02F091EF028081886980831A
:104BD000E091EE02F091EF0280818F7D808388EE7C
:104BE00091E00E947B0E61E080E20E94800561E01E
:104BF00081E20E94800561E08FE10E94800560E013
:104C000080E20E94520560E081E20E94520560E06D
:104C10008FE10E945205E090FB08F090FC088701AC
:104C20000C5F1F4FD7011896ED91FC9130E020E00A
:104C300040E06AE0C80109955701BFE7AB0EB11C1F
:104C4000F5018081882319F0C8010E94871760E070
:104C5000C8010E941F0D4701F0E48F0E911CC8018E
:104C60000E94320DD401DC90F70187ADD80E04808C
:104C7000F581E02D8189D81608F4EDC0C8010E94A5
:104C8000360860E0C8010E941F0DD7011896ED910B
:104C9000FC9130E020E040E06BE0C8010995809194
:104CA000FB089091FC08DC011896ED91FC9130E036
:104CB00020E046EE6EE00496099561E080E20E94F5
:104CC000520561E081E20E94520561E08FE10E949D
:104CD000520580914D0990914E098B55934009F0F2
:104CE000C6C010927F0980E1809380098BEF91E02C
:104CF0000E9495148091FB089091FC08E7ECEE2E41
:104D0000E9E0FE2EDC011796FC92EE9216970496CF
:104D10000E94A00C869500E410E0F801E81BF10960
:104D2000E0937F098CE08093800988E092E00E9404
:104D300095148091FB089091FC08DC011796FC9279
:104D4000EE92169704960E94A00C8695F801E81B37
:104D5000F109E0937F0986E18093800982E192E086
:104D60000E9495148091FB089091FC08DC01179635
:104D7000FC92EE92169704960E94A00C8695F8017C
:104D8000E81BF109E0937F0980E28093800983EFBB
:104D900091E00E9495148091FB089091FC08DC0141
:104DA0001796FC92EE92169704960E94A00C869598
:104DB000F801E81BF109E0937F098AE280938009FA
:104DC0008BE192E00E9495148091FB089091FC0881
:104DD000DC011796FC92EE92169704960E94A00CA6
:104DE0008695081B110900937F0984E3809380094D
:104DF00087E292E00E94951481E099E00E94320DD2
:104E000081E099E00E9436080091D7071091D807F9
:104E10000C5F1F4FF12CFDE9CF2EF7E0DF2E8091C4
:104E2000D607F81608F0D6C0EF2DF0E0EE0FFF1F02
:104E3000E752F84F0190F081E02DF394D186C086BF
:104E4000F38615870487BF0181E893E00E94400F35
:104E50000B5D1F4FE4CFF5018081882319F0C80155
:104E60000E9487176D2DC8010E941F0DF8CEEBE53B
:104E7000F3E0F0934E09E0934D09E491E0935E096D
:104E8000ECE5F3E0E491E0935F09EDE5F3E0E49114
:104E9000E0936009EEE5F3E0E491E0936109EFE56A
:104EA000F3E0E491E0936209E0E6F3E0E491E0935B
:104EB0006309E1E6F3E0E491E0936409E2E6F3E0FC
:104EC000E491E0936509E3E6F3E0E491E093660999
:104ED000E4E6F3E0E491E0936709E5E6F3E0E491CA
:104EE000E0936809E6E6F3E0E491E0936909E7E618
:104EF000F3E0E491E0936A09E8E6F3E0E491E093FB
:104F00006B09E9E6F3E0E491E0936C09EAE6F3E08B
:104F1000E491E0936D09EBE6F3E0E491E0936E0930
:104F200061E18BE593E00E94280C909370098093D7
:104F30006F0963E18BE593E00E94280C909372095E
:104F40008093710965E18BE593E00E94280C9093B2
:104F500074098093730980914D0990914E09892BB2
:104F600009F4BFCE80916B098093770940916C0959
:104F70004093780990917609992309F4B2CE913043
:104F800071F490916D09891714F4909377098091C9
:104F90006E0984170CF0A5CE80937809A2CE3091CB
:104FA000680920916A09082E000C990B622F022EC5
:104FB000000C770B630F711D37FD7A9586179707E5
:104FC0001CF4320F3093770924170CF08ACE20930B
:104FD000780987CE0091D9071091DA0788ED91E022
:104FE0000E94790E6091D2077091D30790E080E023
:104FF0004AE00E94781384ED91E00E94790EF80156
:10500000648575856B5D7F4F90E080E04AE00E948B
:10501000781381ED91E00E94790E60E090E080E0ED
:105020000E94AB0E62E00E94AB0E6AE00E94AB0EE3
:105030006BE00E94AB0E6CE00E94AB0E8C01FF2473
:10504000F3948091D6078F1548F1C090D907D0907E
:10505000DA0780E00E94580E682FC8010E94AB0E4C
:105060008C01B601685F7F4F40E0CE0101960E943F
:10507000600E80E00E942A06682FC8010E94AB0ED5
:105080008C0180E00E944A0E682FC8010E94AB0E7E
:1050900066E00E94AB0E8C01F394D3CF44E050E065
:1050A00070E060E0CE0105960E94162B30E020E013
:1050B0002E6F3A6C09831A832B833C836D817E812A
:1050C0008F819885061717072807390709F466C0E6
:1050D0000E9445148FEB91E00E94790E82EC91E0E2
:1050E0000E94790E69817A818B819C810E9445148E
:1050F0008FEB91E00E94790E44E050E070E060E0B8
:10510000CE0101960E94262B41E060E087ED97E0FA
:105110000E94521540E061E087ED97E00E94521531
:1051200040E062E087ED97E00E94521540E063E0C6
:1051300087ED97E00E94521510E08091D60718176E
:1051400068F5E12FF0E0EE0FFF1FE752F84FC08047
:10515000D180D6011C96AD90BC90F12CE12C198227
:10516000B7016A0D7B1D41E050E0CE0101960E941F
:10517000262BBFEFEB1AFB0AE5E2EE16F10479F7F6
:10518000D6011C968D919C919A83898340E060E0C2
:10519000CE0101960E9452151F5FCFCF8EE198E09D
:1051A0009093A00780939F071B821A821982BE01E9
:1051B0006F5F7F4F8091D4079091D5070E940C15A7
:1051C00089819A810E94022B86E18093320861E0F6
:1051D0000E94800580E298E00E94310E89B78F7BA3
:1051E00089BF8BE396E090930D0180930C018EE3D1
:1051F00098E09093D2028093D10287EB91E00E94D5
:10520000790E60E086E00E94800585EB91E00E94C7
:105210007B0E61E088E00E9480050E946A070E9480
:10522000F30D0E94E90D0E94EF0DB6EFBA95F1F76C
:105230000E94F30D0E94E90D81E591E00E94D211D8
:1052400080E30E94CC110E94E90D0E94EF0D01E85D
:1052500011E055EBC52E51E0D52EFF24F394F80153
:1052600031966491F801849143E00E94A214811167
:1052700001C0F12C0E5F1F4FC016D10681F784E7E5
:1052800091E00E94790E60EC81E30E940E120E9470
:10529000C61386E293E00E94790E83E30E94F41124
:1052A000F5EF28E031E0F15020403040E1F700C058
:1052B00043E060EC8EE30E94A2148BE691E00E9432
:1052C0007B0EFF2039F00E94D5110E94051284E365
:1052D0000E94F4118AE39EE090930D0180930C01EB
:1052E0008AB78F7C80628ABF89B7806489BF80E17A
:1052F0008EBD1FBC1DBC1CBC8EE292E297BD86BD5C
:1053000082E18EBD87B7846087BF68E070E0FF20D0
:1053100011F066E070E080E298E00E94E0140E94E4
:10532000FE2A8C0180E498E00E944E10C8016CEACD
:105330007DE00E94A02B9C0128513C4FA4E6B0E0E8
:105340000E94912B28EE33E040E050E00E946F2B4A
:1053500020934508309346084093470881E08093A6
:10536000480860E478E081E893E00E94400F809173
:10537000D2074CEFE42EE80E855090E004960E9490
:105380008C15D82E00E01EE58E2D8150990B7C01E6
:10539000802F90E08E159F0534F404960E948C15A2
:1053A00018270F5FF5CF1D112BC084E090E00E94FD
:1053B0008C15182F85E090E00E948C15082F80EA4C
:1053C000810F8B30E8F489E591E00E94790E812FFE
:1053D0000E94C613802F0E94C61386E293E00E94AB
:1053E000790E43E061E28DE00E94A21443E0612F58
:1053F0008EE00E94A21443E0602F8FE00E94A2146E
:1054000087E080938E0762E00E9480058FE191E142
:1054100090930F0180930E018AB78F7380648ABFC7
:1054200089B7806889BF9091D60781E0981718F5F1
:105430008EE0D82E90E1C92E22E2B22E36E0A32EC5
:1054400083E893E00E9429100097B9F0DC011297DD
:10545000A1F014968C9114978F7014968C931497D6
:10546000ED91FC9111970190F081E02D61E873E0DE
:10547000CD010995E5CF8F5FD9CF80919F0790919E
:10548000A007DC019B962C91222311F168EA77E0BA
:1054900080960E949C178A30D8F01B821A8219824B
:1054A000BE016F5F7F4F8091D4079091D5070E9416
:1054B0000C15BE016F5F7F4F8CEA97E00E94DA0EF9
:1054C000811106C068EA77E08DE997E00E94041B2D
:1054D000EE24E3948091D6078E15F0F10091D90760
:1054E0001091DA07F801828580FF34C0F090A3079D
:1054F000F394F092A3076091A1077091A207CE01E7
:1055000001960E949E15E0919F07F091A00781A14E
:10551000D8011B969C91D092A807C092AB07B0927D
:10552000AA07A092B207F092A9079093B30710922E
:10553000B4071092B5078093B607AE014F5F5F4F77
:1055400068EA77E08DE997E00E946218F8018285A9
:105550008E7F8287E394BECF0E94530771CF8DE97F
:1055600097E00C940F0E8F929F92AF92BF92CF92C2
:10557000DF92EF92FF92CF93DF93EC016881798104
:105580008A819B81611571058105910521F464E291
:1055900079ED8BE597E02DE133EF41E050E00E949B
:1055A0003D2B49015A019B01AC01A7EAB1E40E94DD
:1055B0005C2B6B017C01ACEEB4EFA50194010E9461
:1055C0006A2BDC01CB018C0D9D1DAE1DBF1DB7FFED
:1055D00003C00197A109B04888839983AA83BB833C
:1055E0009F77DF91CF91FF90EF90DF90CF90BF90AA
:1055F000AF909F908F9008950C94B32A80E191E032
:105600000C94B32AB0E0A0E08093100190931101B4
:10561000A0931201B09313010895FB01DC0102C0B5
:1056200005900D9241505040D8F70895DC01CB0110
:10563000FC01E199FECF06C0FFBBEEBBE09A3196BC
:105640000DB20D9241505040B8F70895DC01CB01E6
:1056500003C02D910E94312B41505040D0F7089546
:10566000262FE199FECF9FBB8EBB2DBB0FB6F894C2
:10567000E29AE19A0FBE01960895052E97FB1EF45B
:1056800000940E94542B57FD07D00E946F2B07FCFB
:1056900003D04EF40C94542B5095409530952195A1
:1056A0003F4F4F4F5F4F089590958095709561954E
:1056B0007F4F8F4F9F4F08950E94912BA59F900D74
:1056C000B49F900DA49F800D911D11240895B7FFE4
:1056D0000C945C2B0E945C2B821B930B0895A1E21F
:1056E0001A2EAA1BBB1BFD010DC0AA1FBB1FEE1F5C
:1056F000FF1FA217B307E407F50720F0A21BB30BA7
:10570000E40BF50B661F771F881F991F1A9469F722
:1057100060957095809590959B01AC01BD01CF017E
:105720000895A29FB001B39FC001A39F700D811D7A
:105730001124911DB29F700D811D1124911D08959A
:1057400097FB072E16F4009407D077FD09D00E942E
:10575000BD2B07FC05D03EF4909581959F4F089591
:10576000709561957F4F0895EE0FFF1F0024001C78
:105770000BBE0790F691E02D0994AA1BBB1B51E1CB
:1057800007C0AA1FBB1FA617B70710F0A61BB70BB1
:10579000881F991F5A95A9F780959095BC01CD0156
:1057A00008950F931F93CF93DF938230910510F4E8
:1057B00082E090E0E0918309F091840930E020E0FC
:1057C000B0E0A0E0309799F42115310509F44AC002
:1057D000281B390B24303105D8F58A819B8161154E
:1057E000710589F1FB0193838283FE0111C0408121
:1057F00051810281138148175907E0F04817590772
:1058000099F4109761F012960C93129713961C93CB
:105810003296CF01DF91CF911F910F9108950093A0
:10582000830910938409F4CF2115310551F04217F3
:10583000530738F0A901DB019A01BD01DF01F8012E
:10584000C1CFEF01F9CF9093840980938309CDCF25
:10585000FE01E20FF31F81939193225031093983A6
:105860002883D7CF2091810930918209232B41F4DD
:1058700020911601309117013093820920938109FC
:1058800020911401309115012115310541F42DB7F6
:105890003EB74091180150911901241B350BE0913E
:1058A0008109F0918209E217F307A0F42E1B3F0B48
:1058B0002817390778F0AC014E5F5F4F2417350782
:1058C00048F04E0F5F1F50938209409381098193E6
:1058D00091939FCFF0E0E0E09CCFCF93DF930097D0
:1058E000E9F0FC01329713821282A0918309B091F2
:1058F0008409ED0130E020E01097A1F4208131818E
:10590000820F931F2091810930918209281739074E
:1059100009F061C0F0938209E0938109DF91CF9192
:105920000895EA01CE17DF07E8F54A815B819E0101
:1059300041155105B1F7E901FB83EA83499159917A
:10594000C40FD51FEC17FD0761F480819181029689
:10595000840F951FE90199838883828193819B83BA
:105960008A83F0E0E0E012968D919C911397009766
:10597000B9F52D913C911197CD010296820F931F9D
:1059800020918109309182092817390739F630971B
:1059900051F51092840910928309B0938209A09363
:1059A0008109BCCFD383C28340815181840F951F6D
:1059B000C817D90761F44E5F5F4F88819981480FFE
:1059C000591F518340838A819B8193838283211550
:1059D000310509F0B0CFF0938409E09383099ECF9D
:1059E000FD01DC01C0CF13821282D7CFFB01DC01A5
:1059F00004C08D910190801921F441505040C8F7A6
:105A0000881B990B0895FB01DC0102C001900D92E7
:105A100041505040D8F70895DC0101C06D934150CA
:105A20005040E0F7089514E0C0E5D4E004C0FE0162
:105A30000E94B42B2196C135D107C9F7F894FFCF46
:105A40003B06000000000000000000000000000015
:105A50000100000000008509800000FFFFFFFFFF3C
:105A6000FFFF0102031815AE15A519FF1815A4159F
:105A7000AF19FF1815A115C019FF1815A015C819E1
:105A8000FF1815E215A215A115C01540152C152EED
:105A9000152F151015A61581151E15AE19FF00013D
:105AA00096320101327800093D00000428501008A8
:105AB00004008000400004080C020A0B0C000000E7
:105AC00000D1063C06690633079A0678068C060064
:105AD000000000C81000000000D61AAA0EFC1F002B
